{
  "_format": "hh-sol-artifact-1",
  "contractName": "UserProfileFactory",
  "sourceName": "contracts/userProfile.sol",
  "abi": [
    {
      "inputs": [
        {
          "internalType": "address",
          "name": "_owner",
          "type": "address"
        }
      ],
      "name": "createAccount",
      "outputs": [
        {
          "internalType": "address",
          "name": "",
          "type": "address"
        }
      ],
      "stateMutability": "nonpayable",
      "type": "function"
    }
  ],
  "bytecode": "0x6080604052348015600f57600080fd5b506110928061001f6000396000f3fe608060405234801561001057600080fd5b506004361061002b5760003560e01c80639859387b14610030575b600080fd5b61004361003e366004610222565b61005f565b6040516001600160a01b03909116815260200160405180910390f35b6040516000906001600160a01b03831690829061007e60208201610215565b601f1982820381018352601f9091011660408181526001600160a01b03871660208301520160408051601f19818403018152908290526100c19291602001610282565b604051602081830303815290604052905060006100e5838380519060200120610112565b90506001600160a01b0381163b156100ff57949350505050565b6101098383610128565b95945050505050565b600061011f8383306101e2565b90505b92915050565b600081516000036101805760405162461bcd60e51b815260206004820181905260248201527f437265617465323a2062797465636f6465206c656e677468207573207a65726f60448201526064015b60405180910390fd5b828251602084016000f590506001600160a01b0381166101225760405162461bcd60e51b815260206004820152601960248201527f437265617465323a204661696c6564206f6e206465706c6f79000000000000006044820152606401610177565b6000604051836040820152846020820152828152600b8101905060ff8153605590206001600160a01b0316949350505050565b610dbd806102a083390190565b60006020828403121561023457600080fd5b81356001600160a01b038116811461024b57600080fd5b9392505050565b6000815160005b818110156102735760208185018101518683015201610259565b50600093019283525090919050565b60006102976102918386610252565b84610252565b94935050505056fe6080604052348015600f57600080fd5b50604051610dbd380380610dbd833981016040819052602c916050565b600080546001600160a01b0319166001600160a01b0392909216919091179055607e565b600060208284031215606157600080fd5b81516001600160a01b0381168114607757600080fd5b9392505050565b610d308061008d6000396000f3fe608060405234801561001057600080fd5b50600436106100675760003560e01c80638da5cb5b116100505780638da5cb5b146100b8578063a024277e146100e3578063a0441f29146100f857600080fd5b80630f53a4701461006c5780633a871cdd14610097575b600080fd5b61007f61007a366004610938565b61010b565b60405161008e939291906109ae565b60405180910390f35b6100aa6100a53660046109e3565b6102f6565b60405190815260200161008e565b6000546100cb906001600160a01b031681565b6040516001600160a01b03909116815260200161008e565b6100f66100f1366004610adc565b6103a1565b005b6100f6610106366004610938565b610530565b6001600160a01b0381166000908152600160205260408120805460609291839183919061013790610b4e565b90501161018b5760405162461bcd60e51b815260206004820152601660248201527f50726f66696c6520646f6573206e6f742065786973740000000000000000000060448201526064015b60405180910390fd5b6001600160a01b0384166000908152600160205260408082208151606081019092528054829082906101bc90610b4e565b80601f01602080910402602001604051908101604052809291908181526020018280546101e890610b4e565b80156102355780601f1061020a57610100808354040283529160200191610235565b820191906000526020600020905b81548152906001019060200180831161021857829003601f168201915b505050505081526020016001820154815260200160028201805461025890610b4e565b80601f016020809104026020016040519081016040528092919081815260200182805461028490610b4e565b80156102d15780601f106102a6576101008083540402835291602001916102d1565b820191906000526020600020905b8154815290600101906020018083116102b457829003601f168201915b5050509190925250508151602083015160409093015190989297509550909350505050565b7f19457468657265756d205369676e6564204d6573736167653a0a3332000000006000908152601c839052603c8120819061037390610339610140880188610b88565b8080601f01602080910402602001604051908101604052809392919081815260200183838082843760009201919091525061069492505050565b6000549091506001600160a01b03808316911614610392576001610395565b60005b60ff1695945050505050565b60008351116103f25760405162461bcd60e51b815260206004820152601460248201527f4e616d652063616e6e6f7420626520656d7074790000000000000000000000006044820152606401610182565b600082116104425760405162461bcd60e51b815260206004820152601a60248201527f416765206d7573742062652067726561746572207468616e20300000000000006044820152606401610182565b60008151116104935760405162461bcd60e51b815260206004820152601560248201527f456d61696c2063616e6e6f7420626520656d70747900000000000000000000006044820152606401610182565b604080516060810182528481526020808201859052818301849052336000908152600190915291909120815181906104cb9082610c25565b5060208201516001820155604082015160028201906104ea9082610c25565b50506040513391507f962d14a45b4d4f21eae16a7f91881a4d308ff4060c8019079a3c676cfd552b0090610523908690869086906109ae565b60405180910390a2505050565b336001600160a01b038216146105ae5760405162461bcd60e51b815260206004820152603260248201527f556e617574686f72697a65643a20596f752063616e206f6e6c792064656c657460448201527f6520796f7572206f776e2070726f66696c6500000000000000000000000000006064820152608401610182565b6001600160a01b038116600090815260016020526040812080546105d190610b4e565b9050116106205760405162461bcd60e51b815260206004820152601660248201527f50726f66696c6520646f6573206e6f74206578697374000000000000000000006044820152606401610182565b6001600160a01b03811660009081526001602052604081209061064382826108e2565b600182016000905560028201600061065b91906108e2565b50506040516001600160a01b038216907f517b492f6c7db035d7c3c4fa1ce0cb2d05e1f24219256f50fbab78242e544c0490600090a250565b6000806000806106a486866106be565b9250925092506106b4828261070b565b5090949350505050565b600080600083516041036106f85760208401516040850151606086015160001a6106ea88828585610813565b955095509550505050610704565b50508151600091506002905b9250925092565b600082600381111561071f5761071f610ce4565b03610728575050565b600182600381111561073c5761073c610ce4565b03610773576040517ff645eedf00000000000000000000000000000000000000000000000000000000815260040160405180910390fd5b600282600381111561078757610787610ce4565b036107c1576040517ffce698f700000000000000000000000000000000000000000000000000000000815260048101829052602401610182565b60038260038111156107d5576107d5610ce4565b0361080f576040517fd78bce0c00000000000000000000000000000000000000000000000000000000815260048101829052602401610182565b5050565b600080807f7fffffffffffffffffffffffffffffff5d576e7357a4501ddfe92f46681b20a084111561084e57506000915060039050826108d8565b604080516000808252602082018084528a905260ff891692820192909252606081018790526080810186905260019060a0016020604051602081039080840390855afa1580156108a2573d6000803e3d6000fd5b5050604051601f1901519150506001600160a01b0381166108ce575060009250600191508290506108d8565b9250600091508190505b9450945094915050565b5080546108ee90610b4e565b6000825580601f106108fe575050565b601f01602090049060005260206000209081019061091c919061091f565b50565b5b808211156109345760008155600101610920565b5090565b60006020828403121561094a57600080fd5b81356001600160a01b038116811461096157600080fd5b9392505050565b6000815180845260005b8181101561098e57602081850181015186830182015201610972565b506000602082860101526020601f19601f83011685010191505092915050565b6060815260006109c16060830186610968565b84602084015282810360408401526109d98185610968565b9695505050505050565b6000806000606084860312156109f857600080fd5b833567ffffffffffffffff811115610a0f57600080fd5b84016101608187031215610a2257600080fd5b95602085013595506040909401359392505050565b634e487b7160e01b600052604160045260246000fd5b600082601f830112610a5e57600080fd5b813567ffffffffffffffff811115610a7857610a78610a37565b604051601f8201601f19908116603f0116810167ffffffffffffffff81118282101715610aa757610aa7610a37565b604052818152838201602001851015610abf57600080fd5b816020850160208301376000918101602001919091529392505050565b600080600060608486031215610af157600080fd5b833567ffffffffffffffff811115610b0857600080fd5b610b1486828701610a4d565b93505060208401359150604084013567ffffffffffffffff811115610b3857600080fd5b610b4486828701610a4d565b9150509250925092565b600181811c90821680610b6257607f821691505b602082108103610b8257634e487b7160e01b600052602260045260246000fd5b50919050565b6000808335601e19843603018112610b9f57600080fd5b83018035915067ffffffffffffffff821115610bba57600080fd5b602001915036819003821315610bcf57600080fd5b9250929050565b601f821115610c2057806000526020600020601f840160051c81016020851015610bfd5750805b601f840160051c820191505b81811015610c1d5760008155600101610c09565b50505b505050565b815167ffffffffffffffff811115610c3f57610c3f610a37565b610c5381610c4d8454610b4e565b84610bd6565b6020601f821160018114610c875760008315610c6f5750848201515b600019600385901b1c1916600184901b178455610c1d565b600084815260208120601f198516915b82811015610cb75787850151825560209485019460019092019101610c97565b5084821015610cd55786840151600019600387901b60f8161c191681555b50505050600190811b01905550565b634e487b7160e01b600052602160045260246000fdfea26469706673582212204a48578fdda478f0d1b50ee871c60566b94cd95148c9a867055ae93ac278ecc264736f6c634300081c0033a2646970667358221220ee83dc858eeac62fcf22a302df80f7ac90b1ec558ffd2e1ab67eccd2843af97f64736f6c634300081c0033",
  "linkReferences": {},
  "deployedLinkReferences": {}
}